{
  "contractName": "Contracts",
  "abi": [
    {
      "inputs": [],
      "stateMutability": "nonpayable",
      "type": "constructor"
    },
    {
      "inputs": [
        {
          "internalType": "uint256",
          "name": "",
          "type": "uint256"
        }
      ],
      "name": "contacts",
      "outputs": [
        {
          "internalType": "uint256",
          "name": "id",
          "type": "uint256"
        },
        {
          "internalType": "string",
          "name": "name",
          "type": "string"
        },
        {
          "internalType": "string",
          "name": "phone",
          "type": "string"
        }
      ],
      "stateMutability": "view",
      "type": "function",
      "constant": true
    },
    {
      "inputs": [],
      "name": "count",
      "outputs": [
        {
          "internalType": "uint256",
          "name": "",
          "type": "uint256"
        }
      ],
      "stateMutability": "view",
      "type": "function",
      "constant": true
    },
    {
      "inputs": [
        {
          "internalType": "string",
          "name": "_name",
          "type": "string"
        },
        {
          "internalType": "string",
          "name": "_phone",
          "type": "string"
        }
      ],
      "name": "createContact",
      "outputs": [],
      "stateMutability": "nonpayable",
      "type": "function"
    },
    {
      "inputs": [
        {
          "internalType": "uint256",
          "name": "contact_id",
          "type": "uint256"
        },
        {
          "internalType": "string",
          "name": "_name",
          "type": "string"
        },
        {
          "internalType": "string",
          "name": "_phone",
          "type": "string"
        }
      ],
      "name": "updateContact",
      "outputs": [],
      "stateMutability": "nonpayable",
      "type": "function"
    },
    {
      "inputs": [
        {
          "internalType": "uint256",
          "name": "contact_id",
          "type": "uint256"
        }
      ],
      "name": "deleteContact",
      "outputs": [],
      "stateMutability": "nonpayable",
      "type": "function"
    }
  ],
  "bytecode": "0x60806040525f805534801562000013575f80fd5b50620000906040518060400160405280600e81526020017f44616e69696c20536f6c6f706f760000000000000000000000000000000000008152506040518060400160405280601081526020017f2b372033333320393939203939203939000000000000000000000000000000008152506200011260201b60201c565b6200010c6040518060400160405280601081526020017f44616e69696c20536f6c6f706f762032000000000000000000000000000000008152506040518060400160405280601081526020017f2b372033333320393939203939203939000000000000000000000000000000008152506200011260201b60201c565b62000558565b5f808154809291906200012590620001cd565b919050555060405180606001604052805f5481526020018381526020018281525060015f805481526020019081526020015f205f820151815f0155602082015181600101908162000177919062000474565b5060408201518160020190816200018f919062000474565b509050505050565b7f4e487b71000000000000000000000000000000000000000000000000000000005f52601160045260245ffd5b5f819050919050565b5f620001d982620001c4565b91507fffffffffffffffffffffffffffffffffffffffffffffffffffffffffffffffff82036200020e576200020d62000197565b5b600182019050919050565b5f81519050919050565b7f4e487b71000000000000000000000000000000000000000000000000000000005f52604160045260245ffd5b7f4e487b71000000000000000000000000000000000000000000000000000000005f52602260045260245ffd5b5f60028204905060018216806200029557607f821691505b602082108103620002ab57620002aa62000250565b5b50919050565b5f819050815f5260205f209050919050565b5f6020601f8301049050919050565b5f82821b905092915050565b5f600883026200030f7fffffffffffffffffffffffffffffffffffffffffffffffffffffffffffffffff82620002d2565b6200031b8683620002d2565b95508019841693508086168417925050509392505050565b5f819050919050565b5f6200035c620003566200035084620001c4565b62000333565b620001c4565b9050919050565b5f819050919050565b62000377836200033c565b6200038f620003868262000363565b848454620002de565b825550505050565b5f90565b620003a562000397565b620003b28184846200036c565b505050565b5b81811015620003d957620003cd5f826200039b565b600181019050620003b8565b5050565b601f8211156200042857620003f281620002b1565b620003fd84620002c3565b810160208510156200040d578190505b620004256200041c85620002c3565b830182620003b7565b50505b505050565b5f82821c905092915050565b5f6200044a5f19846008026200042d565b1980831691505092915050565b5f62000464838362000439565b9150826002028217905092915050565b6200047f8262000219565b67ffffffffffffffff8111156200049b576200049a62000223565b5b620004a782546200027d565b620004b4828285620003dd565b5f60209050601f831160018114620004ea575f8415620004d5578287015190505b620004e1858262000457565b86555062000550565b601f198416620004fa86620002b1565b5f5b828110156200052357848901518255600182019150602085019450602081019050620004fc565b868310156200054357848901516200053f601f89168262000439565b8355505b6001600288020188555050505b505050505050565b610aaf80620005665f395ff3fe608060405234801561000f575f80fd5b5060043610610055575f3560e01c806306661abd146100595780633dce4920146100775780634cc96eb814610093578063b9ed6fca146100af578063e0f478cb146100cb575b5f80fd5b6100616100fd565b60405161006e91906103c6565b60405180910390f35b610091600480360381019061008c919061052c565b610102565b005b6100ad60048036038101906100a891906105cc565b610181565b005b6100c960048036038101906100c49190610654565b6101e9565b005b6100e560048036038101906100e09190610654565b610224565b6040516100f4939291906106f9565b60405180910390f35b5f5481565b5f8081548092919061011390610769565b919050555060405180606001604052805f5481526020018381526020018281525060015f805481526020019081526020015f205f820151815f0155602082015181600101908161016391906109aa565b50604082015181600201908161017991906109aa565b509050505050565b60405180606001604052808481526020018381526020018281525060015f8581526020019081526020015f205f820151815f015560208201518160010190816101ca91906109aa565b5060408201518160020190816101e091906109aa565b50905050505050565b60015f8281526020019081526020015f205f8082015f9055600182015f6102109190610356565b600282015f61021f9190610356565b505050565b6001602052805f5260405f205f91509050805f015490806001018054610249906107dd565b80601f0160208091040260200160405190810160405280929190818152602001828054610275906107dd565b80156102c05780601f10610297576101008083540402835291602001916102c0565b820191905f5260205f20905b8154815290600101906020018083116102a357829003601f168201915b5050505050908060020180546102d5906107dd565b80601f0160208091040260200160405190810160405280929190818152602001828054610301906107dd565b801561034c5780601f106103235761010080835404028352916020019161034c565b820191905f5260205f20905b81548152906001019060200180831161032f57829003601f168201915b5050505050905083565b508054610362906107dd565b5f825580601f106103735750610390565b601f0160209004905f5260205f209081019061038f9190610393565b5b50565b5b808211156103aa575f815f905550600101610394565b5090565b5f819050919050565b6103c0816103ae565b82525050565b5f6020820190506103d95f8301846103b7565b92915050565b5f604051905090565b5f80fd5b5f80fd5b5f80fd5b5f80fd5b5f601f19601f8301169050919050565b7f4e487b71000000000000000000000000000000000000000000000000000000005f52604160045260245ffd5b61043e826103f8565b810181811067ffffffffffffffff8211171561045d5761045c610408565b5b80604052505050565b5f61046f6103df565b905061047b8282610435565b919050565b5f67ffffffffffffffff82111561049a57610499610408565b5b6104a3826103f8565b9050602081019050919050565b828183375f83830152505050565b5f6104d06104cb84610480565b610466565b9050828152602081018484840111156104ec576104eb6103f4565b5b6104f78482856104b0565b509392505050565b5f82601f830112610513576105126103f0565b5b81356105238482602086016104be565b91505092915050565b5f8060408385031215610542576105416103e8565b5b5f83013567ffffffffffffffff81111561055f5761055e6103ec565b5b61056b858286016104ff565b925050602083013567ffffffffffffffff81111561058c5761058b6103ec565b5b610598858286016104ff565b9150509250929050565b6105ab816103ae565b81146105b5575f80fd5b50565b5f813590506105c6816105a2565b92915050565b5f805f606084860312156105e3576105e26103e8565b5b5f6105f0868287016105b8565b935050602084013567ffffffffffffffff811115610611576106106103ec565b5b61061d868287016104ff565b925050604084013567ffffffffffffffff81111561063e5761063d6103ec565b5b61064a868287016104ff565b9150509250925092565b5f60208284031215610669576106686103e8565b5b5f610676848285016105b8565b91505092915050565b5f81519050919050565b5f82825260208201905092915050565b5f5b838110156106b657808201518184015260208101905061069b565b5f8484015250505050565b5f6106cb8261067f565b6106d58185610689565b93506106e5818560208601610699565b6106ee816103f8565b840191505092915050565b5f60608201905061070c5f8301866103b7565b818103602083015261071e81856106c1565b9050818103604083015261073281846106c1565b9050949350505050565b7f4e487b71000000000000000000000000000000000000000000000000000000005f52601160045260245ffd5b5f610773826103ae565b91507fffffffffffffffffffffffffffffffffffffffffffffffffffffffffffffffff82036107a5576107a461073c565b5b600182019050919050565b7f4e487b71000000000000000000000000000000000000000000000000000000005f52602260045260245ffd5b5f60028204905060018216806107f457607f821691505b602082108103610807576108066107b0565b5b50919050565b5f819050815f5260205f209050919050565b5f6020601f8301049050919050565b5f82821b905092915050565b5f600883026108697fffffffffffffffffffffffffffffffffffffffffffffffffffffffffffffffff8261082e565b610873868361082e565b95508019841693508086168417925050509392505050565b5f819050919050565b5f6108ae6108a96108a4846103ae565b61088b565b6103ae565b9050919050565b5f819050919050565b6108c783610894565b6108db6108d3826108b5565b84845461083a565b825550505050565b5f90565b6108ef6108e3565b6108fa8184846108be565b505050565b5b8181101561091d576109125f826108e7565b600181019050610900565b5050565b601f821115610962576109338161080d565b61093c8461081f565b8101602085101561094b578190505b61095f6109578561081f565b8301826108ff565b50505b505050565b5f82821c905092915050565b5f6109825f1984600802610967565b1980831691505092915050565b5f61099a8383610973565b9150826002028217905092915050565b6109b38261067f565b67ffffffffffffffff8111156109cc576109cb610408565b5b6109d682546107dd565b6109e1828285610921565b5f60209050601f831160018114610a12575f8415610a00578287015190505b610a0a858261098f565b865550610a71565b601f198416610a208661080d565b5f5b82811015610a4757848901518255600182019150602085019450602081019050610a22565b86831015610a645784890151610a60601f891682610973565b8355505b6001600288020188555050505b50505050505056fea264697066735822122063bd39e7a188bd2805f0e46b995e2b0d8ecbb5958bb3463b066b941f60dacf4064736f6c63430008150033",
  "immutableReferences": {},
  "source": "// SPDX-License-Identifier: MIT\r\npragma solidity >=0.4.22 <0.9.0;\r\n\r\ncontract Contracts {\r\n    //    -\r\n    uint public count = 0;\r\n\r\n    // ,  \r\n    struct Contact {\r\n        uint id;\r\n        string name;\r\n        string phone;\r\n    }\r\n\r\n    //  \r\n    constructor() {\r\n        createContact(\"Daniil Solopov\", \"+7 333 999 99 99\");\r\n        createContact(\"Daniil Solopov 2\", \"+7 333 999 99 99\");\r\n    }\r\n\r\n    //  \r\n    mapping(uint => Contact) public contacts;\r\n\r\n    //   \r\n    function createContact(string memory _name, string memory _phone) public {\r\n        count++;\r\n        contacts[count] = Contact(count, _name, _phone);\r\n    }\r\n\r\n    //  \r\n    function updateContact(uint contact_id, string memory _name, string memory _phone) public {\r\n        contacts[contact_id] = Contact(contact_id, _name, _phone);\r\n    }\r\n\r\n    //   \r\n    function deleteContact(uint contact_id) public {\r\n        delete contacts[contact_id];\r\n    }\r\n}\r\n",
  "sourcePath": "C:\\Projects\\Lab\\Blockchain\\blockchain2\\contracts\\contracts\\contacts.sol",
  "compiler": {
    "name": "solc",
    "version": "0.8.21+commit.d9974bed.Emscripten.clang"
  },
  "schemaVersion": "3.4.16",
  "updatedAt": "2024-11-17T05:01:42.984Z",
  "networkType": "ethereum",
  "devdoc": {
    "kind": "dev",
    "methods": {},
    "version": 1
  },
  "userdoc": {
    "kind": "user",
    "methods": {},
    "version": 1
  }
}